:100000000C9411010C9439010C9439010C943901B0
:100010000C9439010C9439010C9439010C94390178
:100020000C9439010C9439010C9439010C94390168
:100030000C9439010C9439010C9439010C94390158
:100040000C945D1E0C9439010C94CD1E0C94A71ECB
:100050000C9439010C9439010C9439010C94390138
:100060000C9439010C94390100407A10F35A00A025
:10007000724E18090010A5D4E80000E87648170071
:1000800000E40B54020000CA9A3B000000E1F505B1
:10009000000080969800000040420F000000A086FB
:1000A00001000000102700000000E803000000002D
:1000B0006400000000000A000000000001000000D1
:1000C00000002C76D888DC674F0823DFC1DFAE59EB
:1000D000E1B1B796E5E3E453C63AE651997696E87E
:1000E000E6C28426EB898C9B62ED407C6FFCEFBC02
:1000F0009C9F40F2BAA56FA5F490055A2AF75C932D
:100100006B6CF9676DC11BFCE0E40D47FEF520E662
:10011000B500D0ED902E0300943577050080841E45
:10012000080000204E0A000000C80C333333330FA0
:10013000986E12831141EF8D2114893BE65516CF3D
:10014000FEE6DB18D1844B381BF77C1D901DA4BB49
:10015000E424203284725E228100C9F124ECA1E5FE
:100160003D274665686C6572204C756674666575DA
:1001700063687469676B656974202E4D6573737568
:100180006E64204448543131004665686C657220C5
:1001900054656D702E4D657373756E6420444854BC
:1001A00031310000000008000201000003040700D4
:1001B00000000000000000005EBCE2613FDD83C281
:1001C0009C7E20A3FD1F41009D23BE46DB65F88C6D
:1001D00011AF32CA57E97400000000250028002B37
:1001E0000000000000240027002A00000000002377
:1001F000002600290004040404040404040202028A
:100200000202020303030303030102040810204057
:100210008001020408102001020408102000FF1EC3
:100220002B2611241FBECFEFD8E0DEBFCDBF13E0D9
:10023000A0E0B1E0E8E3FBE502C005900D92AE342A
:10024000B107D9F725E0AEE4B3E001C01D92A837AD
:10025000B207E1F711E0C0E1D1E004C02197FE014F
:100260000E94502ACF30D107C9F70E9479200C9400
:100270008F2D0C940000CF93DF93E6E0F5E0EC01C6
:100280008A819B81AC81BD81858F968FA78FB0A31A
:100290008BE597E094A383A312A211A2CF01DF9173
:1002A000CF9108958CBD9DBD0895CF93DF93EC0150
:1002B000FA013296E60FF71FDC019D012C1B3D0B66
:1002C000CF01861B970B4D91442311F04193F5CF3D
:1002D000AC01421B530B640F751FFB013297308337
:1002E00061507109FB012083DF91CF9108958091C6
:1002F0000A0590910B05009711F480E02FC0DC01F6
:10030000ED91FC910688F789E02D099520912D0546
:1003100030912E0581111FC0232B79F78DEF9FEFB0
:1003200090932E0580932D0580910A0590910B05E1
:10033000DC01ED91FC910680F781E02D099580911B
:100340000A0590910B05DC01ED91FC910488F5897B
:10035000E02D0995D2CF81E0232B79F60895FC0199
:10036000818D928D0895089590E0FC01ED55FE4F2A
:100370002491FC01E75FFD4F3491FC01EB50FE4FEF
:10038000E491EE23C9F0222339F0233001F1A8F4DF
:10039000213019F1223029F1F0E0EE0FFF1FE95270
:1003A000FE4FA591B4918FB7F894EC91611126C0DE
:1003B00030953E233C938FBF08952730A9F0283015
:1003C000C9F0243049F7809180008F7D03C080916F
:1003D00080008F7780938000DFCF84B58F7784BDD6
:1003E000DBCF84B58F7DFBCF8091B0008F7780937A
:1003F000B000D2CF8091B0008F7DF9CF3E2BDACF05
:10040000CF93DF9390E0FC01E75FFD4F24918B5089
:100410009E4FFC0184918823C9F090E0880F991FBA
:10042000FC01EF51FE4FA591B491FC01E952FE4F42
:10043000C591D49161110DC09FB7F8948C9120950E
:1004400082238C938881282328839FBFDF91CF91BB
:100450000895623051F49FB7F8943C91822F8095B3
:1004600083238C93E8812E2BEFCF8FB7F894EC91F8
:100470002E2B2C938FBFEACF3FB7F894809169035E
:1004800090916A03A0916B03B0916C0326B5A89B71
:1004900005C02F3F19F00196A11DB11D3FBFBA2F16
:1004A000A92F982F8827BC01CD01620F711D811DD6
:1004B000911D42E0660F771F881F991F4A95D1F75B
:1004C00008958F929F92AF92BF92CF92DF92EF9258
:1004D000FF926B017C010E943C024B015C01C11444
:1004E000D104E104F104B9F00E943C0268197909D1
:1004F0008A099B09683E73408105910580F321E0DC
:10050000C21AD108E108F10888EE880E83E0981E2F
:10051000A11CB11CE4CFFF90EF90DF90CF90BF9073
:10052000AF909F908F9008952FB7F89460916503D6
:100530007091660380916703909168032FBF0895BF
:10054000EF92FF920F931F93CF93DF9300D000D0D1
:10055000CDB7DEB7FA0120E08E010F5F1F4F9E2F4F
:100560009F77EE0FEF2FEE1FFF0BF195309709F0FD
:100570009068D801A20FB11D9C932F5F309779F737
:1005800030E0FB01E21BF30B8483FB01E21BF30B66
:100590003596D801CD01801B910B821793071CF46F
:1005A0008D918193F7CF2F5F3F4F80910A059091F6
:1005B0000B058901040F151F621B730B6B5F7F4FC7
:1005C000DC01ED91FC910280F381E02DA8010995F9
:1005D0007C010E9494026093160570931705809326
:1005E00018059093190581E00E151F0509F080E0AC
:1005F0000F900F900F900F90DF91CF911F910F915F
:10060000FF90EF9008958F929F92AF92BF92CF92FA
:10061000DF92EF92FF92CF93DF93EC010E9494025E
:100620004B015C0180910A0590910B05DC01ED9175
:10063000FC910084F185E02D0995892BB9F40E9485
:1006400094026B017C01C818D908EA08FB082091C4
:10065000120530911305A8EEB3E00E94192AC616C0
:10066000D706E806F906F0F280E00DC080910A0591
:1006700090910B05DC01ED91FC910284F385E02D56
:100680000995888381E0DF91CF91FF90EF90DF9013
:10069000CF90BF90AF909F908F9008952F923F92F0
:1006A0004F925F926F927F928F929F92AF92BF9282
:1006B000CF92DF92EF92FF920F931F93CF93DF932E
:1006C000CDB7DEB72A970FB6F894DEBF0FBECDBF09
:1006D0001C0180910C0590910D050E94030381116E
:1006E0001CC060E070E0CB012A960FB6F894DEBF24
:1006F0000FBECDBFDF91CF911F910F91FF90EF9073
:10070000DF90CF90BF90AF909F908F907F906F9031
:100710005F904F903F902F900895E0910C05F091DD
:100720000D05D0801982EE24E394F12C812C912CBC
:100730005401412C512C32014394CE0101960E9468
:100740000303882371F287010F5F1F4F8981E091B6
:100750000C05F0910D05EE0DFF1D8083E981AE2F94
:10076000AF77B0E0A30192010E94B529860E971ED3
:10077000A81EB91E37E0440C551C661C771C3A9520
:10078000D1F7E7FD3FC0BD2DB07FBE838FEF800F57
:10079000F1018083B03309F04CC080910C05909139
:1007A0000D05800F911F0E940303882309F499CF40
:1007B00020910C0530910D05C7010296820F931F01
:1007C0000E940303882309F48CCF0E5F1F4FE09132
:1007D0000C05F0910D05D1018C91DF01A80FB11D21
:1007E00011968C91119790E0982F882712962C9152
:1007F000820F911D208121FD0296F2E0E0E030E0C1
:1008000020E01DC078010530110509F096CF8FEF6B
:100810009FEF90932E0580932D0580910A0590916E
:100820000B05DC01ED91FC910488F589E02D09951B
:1008300058CFF0E0E0E030E020E090E080E070E0D1
:1008400060E0CF2EDE2EE32EF22E28013B014C1865
:100850005D086E087F084A825B826C827D822C0173
:10086000712C612C4F82588669867A864A805B801B
:100870006C807D804C0C5D1C6E1C7F1CC814D904E0
:10088000EA04FB0408F046C0CE0101960E9403036F
:10089000882309F426CF80912B0590912C05009791
:1008A00011F12E812033F9F4D1012C914EEF5FEF3D
:1008B0006FEF7FEF421B510961097109440E551E0C
:1008C000661E771E2F81388549855A852415350582
:1008D0004605570540F4DC01ED91FC910190F08153
:1008E000E02D6981099580910E0590910F050817FB
:1008F000190750F48981E0910C05F0910D05E00F86
:10090000F11F80830F5F1F4FBFEFCB1ADB0AEB0A8B
:10091000FB0AACCF80912B0590912C05892B69F4B3
:1009200080910E0590910F05B0E0A0E0841595052B
:10093000A605B70510F410E000E0B80190E080E0F3
:10094000D3CEAF92BF92CF92DF92EF92FF920F93EE
:100950001F93CF93DF936C017B018B01040F151F55
:10096000EB015E01AE18BF08C017D10759F06991BD
:10097000D601ED91FC910190F081E02DC601099521
:10098000892B79F7C501DF91CF911F910F91FF90CE
:10099000EF90DF90CF90BF90AF900895FC01538D02
:1009A000448D252F30E0842F90E0821B930B541749
:1009B00010F0CF96089501970895FC01918D828DD6
:1009C000981761F0A28DAE0FBF2FB11D5D968C916F
:1009D000928D9F5F9F73928F90E008958FEF9FEFAE
:1009E0000895FC01918D828D981731F0828DE80F6A
:1009F000F11D858D90E008958FEF9FEF0895FC0124
:100A0000918D228D892F90E0805C9F4F821B9109F0
:100A10008F739927089588E094E00E94FF0421E0F5
:100A2000892B09F420E0822F089580E090E0892B43
:100A300029F00E940B0581110C9400000895FC011F
:100A4000A48DA80FB92FB11DA35ABF4F2C91848D2F
:100A500090E001968F739927848FA689B7892C938C
:100A6000A089B1898C91837080648C93938D848DDF
:100A7000981306C00288F389E02D80818F7D8083E2
:100A80000895EF92FF920F931F93CF93DF93EC01A2
:100A900081E0888F9B8D8C8D98131AC0E889F98925
:100AA000808185FF15C09FB7F894EE89FF89608328
:100AB000E889F98980818370806480839FBF81E0A9
:100AC00090E0DF91CF911F910F91FF90EF900895EB
:100AD000F62E0B8D10E00F5F1F4F0F731127E02EC6
:100AE0008C8D8E110CC00FB607FCFACFE889F989FE
:100AF000808185FFF5CFCE010E941F05F1CFEB8DE0
:100B0000EC0FFD2FF11DE35AFF4FF0829FB7F894D1
:100B10000B8FEA89FB8980818062CFCFCF93DF93EF
:100B2000EC01888D8823B9F0AA89BB89E889F98905
:100B30008C9185FD03C0808186FD0DC00FB607FC3A
:100B4000F7CF8C9185FFF2CF808185FFEDCFCE016D
:100B50000E941F05E9CFDF91CF910895CF92DF92D8
:100B6000EF92FF92CF93DF93DC011796CC9117970A
:100B7000D0E06111DC2F18962C91189730E0220FED
:100B8000331F25513E4F50E040E0F901859194918B
:100B9000FC01F080BA0190E080E0EF2DEC23ED1332
:100BA00010C04F5F5F4F1D96CD90DD90ED90FC9093
:100BB00050976C157D058E059F0538F36FEF7FEF1D
:100BC000CB01DF91CF91FF90EF90DF90CF90089510
:100BD0008F929F92AF92BF92CF92DF92EF92FF924D
:100BE0000F931F93CF93DF93CDB7DEB7C054D1409F
:100BF0000FB6F894DEBF0FBECDBF8C010E949402E9
:100C0000F801C184D284E384F4849B01AC012C19E3
:100C10003D094E095F0969017A0130EDC31637E0DD
:100C2000D306E104F104A8F48189C05CDE4F0FB65D
:100C3000F894DEBF0FBECDBFDF91CF911F910F9112
:100C4000FF90EF90DF90CF90BF90AF909F908F90EC
:100C50000895618772878387948714821382128232
:100C60001182108262E085810E94000261E070E0E2
:100C700080E090E00E94610261E0F80185810E94BD
:100C8000000260E0F80185810E94B401F8018681CC
:100C90008551823028F58BE291E10197F1F762E00E
:100CA000F80185810E940002F801828990E082307B
:100CB000910538F0880F991F880F991F05970197A4
:100CC000F1F7F89460E0C8010E94AE056F3F7F4FD6
:100CD0008F4F9F4F61F4F801118A789480E0A5CF7F
:100CE00064E170E080E090E00E946102D8CF61E0B2
:100CF000C8010E94AE056F3F7F4F8F4F9F4F59F342
:100D00009E012F5F3F4F79015E013FEBA31A3EEF3B
:100D1000B30A670160E0C8010E94AE05F601608376
:100D200071838283938361E0C8010E94AE05F6015E
:100D30006483758386839783F8E0CF0ED11CCA1431
:100D4000DB0441F7789430E020E0F7018080918067
:100D5000A280B3804481558166817781FFEF8F1631
:100D60009F06AF06BF0631F04F3F8FEF5807680769
:100D7000780719F4F801118AB1CFF90183E0F595EC
:100D8000E7958A95E1F7E00FF11F8081880F8416BF
:100D90009506A606B706F0F080832F5F3F4FF8E078
:100DA000EF0EF11C2832310581F6F80144812081D3
:100DB0008181280F3327331F8281280F311D8381C2
:100DC000820F932F911D99274817190699F681E0F4
:100DD000818B2BCF8160E0CFFC0183898B3051F474
:100DE00080E492E4AFE0B0E0FB0184A395A3A6A366
:100DF000B7A3089580E894E8AEE1B0E0F5CFFC0138
:100E000020812EBD9B012150310941F051810DB44B
:100E100007FEFDCF4EB55EBD4193F5CF6150710920
:100E2000860F971F0DB407FEFDCF2EB5FC01208362
:100E30000895E0910204F0910304808190910104EF
:100E4000892B80830895E0910204F091030490813E
:100E50008091010480958923808308958EBD0000D0
:100E60000DB407FEFDCF8EB50895AF92BF92CF921D
:100E7000DF92EF92FF920F931F93CF93DF93CDB743
:100E8000DEB728970FB6F894DEBF0FBECDBF8C013A
:100E90007B016A01809105048333E1F45801A40EBB
:100EA000B51EA016B10609F46FC00E94230780EF9B
:100EB0000E942E07812F0E942E07802F0E942E074E
:100EC0000F5F1F4FF70181917F010E942E070E9443
:100ED0001907E7CF5B01A40EB51E8433C1F40E944D
:100EE000230719830A838D2D80688B83CC8264E06D
:100EF00070E0CE0101960E94FF06AE14BF0409F413
:100F000041C0F70181917F010E942E07F6CF0E9418
:100F100023070F3F110509F028F419820A8384E0A2
:100F20008B830CC017FD17C019820A8333E0169516
:100F300007953A95E1F7007E0C600B8386E0C816B2
:100F4000D104A0F5F701DE011496EA15FB0599F02E
:100F500081918D93FACFC80126E0969587952A95C1
:100F6000E1F7807E19830A830115104C10F4846127
:100F7000D7CF8C61D5CFB6016D5F7F4FCE01019683
:100F80000E94FF060E941907C60128960FB6F89422
:100F9000DEBF0FBECDBFDF91CF911F910F91FF90AC
:100FA000EF90DF90CF90BF90AF90089563E070E036
:100FB000CE0101960E94FF06F70181917F010E94F8
:100FC0002E07AE14BF04C1F7DDCFCF93DF931F927E
:100FD000CDB7DEB7898341E050E0BE016F5F7F4F40
:100FE00090E080E00E9435070F90DF91CF91089547
:100FF00090E020910504233339F40C96982F990F33
:10100000990F990F80E008954896F8CFDA01E091A2
:101010000604F0E0FE2FEE27E60FF71F90E0982F72
:101020008827A901BD018E0F9F1F0C943507CF9310
:10103000DF9300D0CDB7DEB779836A8322E030E05A
:10104000AE014F5F5F4F60E170E00E9406080F90B5
:101050000F90DF91CF910895CF93DF9300D0CDB75C
:10106000DEB779836A8322E030E0AE014F5F5F4FE5
:1010700064E070E00E9406080F900F90DF91CF911E
:101080000895CF93DF931F92CDB7DEB7209106046A
:1010900030E0322F2227260F371F90E0982F882725
:1010A000498341E050E0BE016F5F7F4F820F931F85
:1010B0000E9435070F90DF91CF910895CF93DF9372
:1010C0001F92CDB7DEB76983DC01ED91FC91028000
:1010D000F381E02D41E050E0BE016F5F7F4F099545
:1010E0000F90DF91CF910895FC019485FB018485D9
:1010F000981303C081E0943008F080E00895CF9306
:10110000DF931F92CDB7DEB76983DC01ED91FC91CF
:101110000280F381E02D41E050E0BE016F5F7F4F20
:1011200009950F90DF91CF9108950895FF920F9345
:101130001F93CF93DF93EB01FC01178A168A2A8154
:10114000211109C02B81211106C02C81211103C05E
:101150002D81222301F141155105E9F08A01FC019D
:10116000F08C80E591E00E945201AE014E5F5F4F2E
:1011700024E030E06CE070E08F2D0E940608B8019A
:101180008F2D0E94170881E090E0DF91CF911F9191
:101190000F91FF90089580E0F7CFFC01848595853D
:1011A0000895FC0184899589089523ED31E0FC01BF
:1011B00031832083FB014089518962897389FC0155
:1011C00042835383648375830895DC01ED91FC9120
:1011D000048CF58DE02D0994EF92FF920F931F93ED
:1011E000CF93DF93EC018B017A010E949402688B0C
:1011F000798B8A8B9B8B8C819D81DC01ED91FC919D
:101200000280F381E02DA701B801DF91CF911F91FA
:101210000F91FF90EF9009941F93CF93DF93EC0110
:10122000162F0E949402688B798B8A8B9B8B8C8102
:101230009D81DC01ED91FC910190F081E02D612F09
:10124000DF91CF911F910994089590E080E0089577
:101250008F929F92AF92BF92CF92DF92EF92FF92C6
:101260000F931F93CF93DF93DC0128E030E081E000
:1012700088248A94912C0FE010E053E2E52EF12CA3
:1012800077EDC72ED12C9C911196ED91FC91129780
:10129000792F7095562F582309F438C0F89452814D
:1012A000572352835181592B5183E7012197F1F73D
:1012B0005281952B92837894F6013197F1F7880F3C
:1012C0002150310901F7411114C0F8941196ED91A4
:1012D000FC91129791818C9180958923818311963D
:1012E000ED91FC91129792818C9180958923828354
:1012F0007894DF91CF911F910F91FF90EF90DF9045
:10130000CF90BF90AF909F908F900895F8945281A6
:10131000572352835181592B5183E4012197F1F7CF
:101320005281952B92837894F801C7CFDC012C91E0
:101330001196ED91FC91F8948181822B81839281A9
:10134000322F30959323928387E090E00197F1F755
:1013500081818323818383E290E00197F1F790817B
:101360007894EFECF0E03197F1F7922381E009F403
:1013700080E00895FC0190810180F281E02DF894D5
:101380008181292F20958223818378943DE743E052
:1013900050E0315029F1DA011197F1F7808189236A
:1013A000C1F3F8948281822382838181892B818396
:1013B0007894ABE7B7E01197F1F7F8948181822335
:1013C0008183A3E1B1E01197F1F78081982381E057
:1013D00009F080E07894E3E6F6E03197F1F70895BC
:1013E00080E008954F925F926F927F928F929F92CA
:1013F000AF92BF92CF92DF92EF92FF920F931F9323
:10140000CF93DF93CDB7DEB729970FB6F894DEBF41
:101410000FBECDBF6C018091EA049091EB040E9455
:10142000BA09882309F451C0E090EA04F090EB0473
:1014300040E065E5C7010E9428098601560128E0C1
:10144000A20EB11CD8016D918D0140E0C7010E9430
:1014500028090A151B05B1F740E06EEB8091EA04FC
:101460009091EB040E9428098E010F5F1F4F4E01DF
:10147000BAE08B0E911C78016090EA047090EB0446
:10148000A8E0AA2EB12C512C44244394C3010E94FD
:10149000960981115428440CE1E0AE1AB108B1F765
:1014A000D7015D927D018A169B0631F78091EA048F
:1014B0009091EB040E94BA09813039F4F8018191CE
:1014C000811108C0EE15FF05D1F760E070E08EEFE6
:1014D00092EC64C029E0E0E0215099F0D8018D91B0
:1014E0008D018E27E82FEF70F0E0E954FE4F9491C4
:1014F000E82FE295EF70F0E0E953FE4FE491E92721
:10150000EBCF89858E13E1CF2A8160E070E0CB01BB
:1015100027FF04C060E070E088EF9FEFF601408194
:10152000C9804B3309F051C03D8137FF4EC0C0FC2C
:10153000CCCFD12CF12CE12CE3E0CC0CDD1CEE1C4B
:10154000FF1CEA95D1F746015701F0EE8F22F7E034
:101550009F22AA24BB24C22ED12CF12CE12CFBE02B
:10156000CC0CDD1CEE1CFF1CFA95D1F7C828D9283D
:10157000EA28FB286C297D298E299F29613854EEA1
:1015800075075FEF850795070CF49FCF0E94982899
:1015900020E030E040E05CE30E94F72829960FB697
:1015A000F894DEBF0FBECDBFDF91CF911F910F9199
:1015B000FF90EF90DF90CF90BF90AF909F908F9073
:1015C0007F906F905F904F900895022F10E0102F42
:1015D0000027110F110F110F28E0C29E6001112486
:1015E0000C291D29012E000C220B330B602B712BB3
:1015F000822B932B403111F64885442309F4BECF4A
:101600008B019C0183E0000F111F221F331F8A955D
:10161000D1F70078277033270052110921093109C9
:10162000642F70E08F81AB01481B5109CA01969568
:10163000982F8827979587950E94282A072E000CB7
:10164000880B990B600F711F821F931F97CF08950E
:101650000895FC01768765870895DC01ED91FC9182
:1016600002A0F3A1E02D099591E089270895862F26
:10167000089581E08627089521E0FC018485883063
:1016800008F020E0822F089508950F931F93CF93C1
:10169000DF9360910E0570910F0589E893E00E9439
:1016A0004F26EC010E9477018823F1F100910E058D
:1016B00010910F05B80185EC93E00E944F269E0122
:1016C000295F3F4F820F931F0817190768F1609138
:1016D0000C0570910D0545E050E085EC93E00E940B
:1016E0005501E9E8F3E08C0109581340A8014E0FB9
:1016F0005F1F60910C0570910D059F0129583340C3
:101700002C173D0730F42191640F751FDB012C93DA
:10171000EDCF2597AE01480F591F80E3DF91CF91A0
:101720001F910F910C94A00280E0DF91CF911F9147
:101730000F9108950F931F93CF93DF93EC0188814E
:101740009981009759F02A813B812617370730F09D
:1017500081E0DF91CF911F910F9108958B016F5F11
:101760007F4F0E949A2C009759F0998388831B839E
:101770000A832C813D81232B59F7FC011082E8CF8D
:1017800080E0E7CFFB0101900020E9F73197AF013E
:10179000461B570BDC01ED91FC910280F381E02D9B
:1017A00009940F931F93CF93DF938C01D0E0C0E097
:1017B000F801EC0FFD1F6491662341F088E094E08E
:1017C0000E944105892B11F02196F2CF65ED71E061
:1017D00088E094E00E94C20B8C0F9D1FDF91CF9197
:1017E0001F910F9108958F929F92AF92BF92EF92A7
:1017F000FF920F931F93CF93DF93CDB7DEB7A197DF
:101800000FB6F894DEBF0FBECDBF7C01FA01CB014D
:1018100019A2223008F42AE08E010F5D1F4F822E9C
:10182000912CB12CA12CBF01A50194010E94F72994
:10183000F901CA016A300CF5605DD8016E938D0123
:10184000232B242B252B79F790E080E0109721F0B3
:10185000BD01C7010E94C20BA1960FB6F894DEBF6E
:101860000FBECDBFDF91CF911F910F91FF90EF90F1
:10187000BF90AF909F908F900895695CDECFCF921C
:10188000DF92EF92FF92CF93DF936B017C016DE2C9
:1018900088E094E00E944105EC0144275527BA01F5
:1018A0004C195D096E097F092AE088E094E00E94E6
:1018B000F30B8C0F9D1FDF91CF91FF90EF90DF9086
:1018C000CF900895CF93DF93AC01990F660B770B00
:1018D00077FF10C0CB01BA010E943F0CEC0165ED0F
:1018E00071E088E094E00E94C20B8C0F9D1FDF9195
:1018F000CF9108952AE088E094E00E94F30BEECFA8
:101900008F929F92AF92BF92CF92DF92EF92FF920F
:101910000F931F93CF93DF937C01EB016C0182E067
:10192000C80ED11C4701E5E08E0E911C10E000E0CE
:10193000F60141916F0150E070E060E02AE0CE01D5
:101940000E94F30B5C01E881F9810190F081E02DA8
:101950006EE2CE0109958A0D9B1D080F191FC81450
:10196000D90431F7F701458150E070E060E02AE0EA
:10197000CE010E94F30B800F911FDF91CF911F9139
:101980000F91FF90EF90DF90CF90BF90AF909F901E
:101990008F9008954F925F926F927F928F929F9255
:1019A000AF92BF92CF92DF92EF92FF920F931F936D
:1019B000CF936B017C01742EAC019B010E94702BB4
:1019C00068ED71E0811126C046015701E894B7F82F
:1019D0002FEF3FEF4FE75FE7C501B4010E94702B87
:1019E00081110CC02FEF3FEF4FE75FE7C501B40156
:1019F0000E9491286CED71E0181664F02FEF3FEF14
:101A00004FE75FE4C701B6010E946B2B1816ACF4D8
:101A100060EE71E088E094E0CF911F910F91FF900C
:101A2000EF90DF90CF90BF90AF909F908F907F907E
:101A30006F905F904F900C94C20B2FEF3FEF4FE7EA
:101A40005FECC701B6010E94912887FDE1CF20E03D
:101A500030E0A901C701B6010E94912810E000E022
:101A600087FF0AC06DE288E094E00E9441058C0186
:101A7000F7FAF094F7F8F094C0E060E070E080E0EE
:101A80009FE37C1641F020E030E040E251E40E9408
:101A9000C32ACF5FF6CFA70196010E94572A2B01D8
:101AA0003C010E943C2B4B015C012AE0BC01A401DB
:101AB00088E094E00E94F30B7C01E00EF11ECC2341
:101AC000D1F1C501B4010E9496289B01AC01C3016C
:101AD000B2010E94562A4B015C016EE288E094E05C
:101AE0000E944105E80EF91EC15028F120E030E0C7
:101AF00040E251E4C501B4010E94F7282B013C01EA
:101B00000E943C2B4B01B12CA12C2AE0B501A40171
:101B100088E094E00E94F30BE80EF91EC501B401C1
:101B20000E9496289B01AC01C301B2010E94562A73
:101B30004B015C01D9CFC701CF911F910F91FF904D
:101B4000EF90DF90CF90BF90AF909F908F907F905D
:101B50006F905F904F900895CF92DF92EF92FF9237
:101B60000F931F93CF93DF938C01EB01FB0134960E
:101B700080E2DF011D928A95E9F784E290E0A0E01F
:101B8000B0E088839983AA83BB83F801848195811F
:101B9000A681B7818C839D83AE83BF838CE090E068
:101BA000A0E0B0E088879987AA87BB870E9494024B
:101BB000688B798B8A8B9B8BD80112960D911C9127
:101BC000C8010E94E805882349F0F80186818B301E
:101BD00028F08D3040F08551823070F160E070E087
:101BE00080EC9FE71BC0618170E090E080E00E9484
:101BF00098282DEC3CEC4CEC5DE30E94F7286B013F
:101C00007C01F801608170E090E080E00E949828FB
:101C10009B01AC01C701B6010E94572A6C8B7D8BDA
:101C20008E8B9F8B81E0DF91CF911F910F91FF9061
:101C3000EF90DF90CF9008956081718176276727BC
:101C4000762790E080E00E9496282DEC3CEC4CEC4E
:101C50005DE30E94F728E2CF8F929F92AF92BF92EE
:101C6000EF92FF921F93CF93DF937C01EB01FB0177
:101C7000349680E2DF011D928A95E9F784E290E0D4
:101C8000A0E0B0E088839983AA83BB83F7018481B5
:101C90009581A681B7818C839D83AE83BF838DE0C0
:101CA00090E0A0E0B0E088879987AA87BB870E9470
:101CB0009402688B798B8A8B9B8BD7011296ED905F
:101CC000FC90C7010E94E805882341F0F701868156
:101CD0008C3009F455C038F48B30E1F060E070E0EE
:101CE00080EC9FE73EC085518230C0F71281612FA2
:101CF00070E0762F662766277F778381682B90E0D8
:101D000080E00E9496282DEC3CEC4CEC5DE30E94B8
:101D1000F72851C0628170E090E080E00E94962830
:101D20004B015C01F701138117FF0AC0AC019B0155
:101D300060E070E080E89FEB0E94562A4B015C0156
:101D40001F70612F70E090E080E00E9498282DECD9
:101D50003CEC4CEC5DE30E94F728A50194010E9445
:101D6000572A6C8B7D8B8E8B9F8B81E0DF91CF917F
:101D70001F91FF90EF90BF90AF909F908F9008952C
:101D80001281612F70E090E080E00E9496284B0164
:101D90005C01F70163816F7070E090E080E00E9469
:101DA00098282DEC3CEC4CEC5DE30E94F728A50153
:101DB00094010E94572A17FFD4CF9058D2CFAF92E8
:101DC000BF92CF92DF92EF92FF920F931F93CF9328
:101DD000DF9300D000D0CDB7DEB78C016B017A0164
:101DE000809105048333E9F45B016801C40ED51EBC
:101DF000C016D106A9F10E9423078FE00E942E078A
:101E0000812F0E942E07802F0E942E070F5F1F4FE9
:101E100080E00E942E07F50181935F010E9419075F
:101E2000E7CF843369F50E94230719830A838F2D36
:101E30008F778B83EC8264E070E0CE0101960E9484
:101E4000FF06A70170E060E0C6010E94722DE11458
:101E5000F10421F0B701C6010E94FF060E94190794
:101E6000C7010F900F900F900F90DF91CF911F91AE
:101E70000F91FF90EF90DF90CF90BF90AF900895BB
:101E80000E9423070F3F110509F030F419820A83DD
:101E90001B8263E070E0D1CF17FD0BC019820A836B
:101EA00033E0169507953A95E1F7007E08600B83BD
:101EB000F0CFC80126E0969587952A95E1F7807EB8
:101EC00019830A830115104C18F480618B83E1CFCC
:101ED0008861FCCFCF93DF931F92CDB7DEB72091FF
:101EE000060430E0322F2227260F371F90E0982F6C
:101EF000882741E050E0BE016F5F7F4F820F931F44
:101F00000E94DF0E89810F90DF91CF910895CF93CA
:101F1000C82F462F61E070E00E94410861E070E048
:101F20008C2F0E946A0F8111F9CFCF910895CF9322
:101F3000C82F80E591E00E94520168E070E08C2F8C
:101F4000CF910C94870FCF93C82F80E591E00E942A
:101F5000520160E170E08C2FCF910C94870FCF93EA
:101F6000DF93EC01888D843020F40E94A30F84E07D
:101F7000888FDF91CF910895CF93C82F80E591E0AE
:101F80000E94520163E070E08C2FCF910C946A0F95
:101F9000CF93DF93EC018C858430D0F40E94BC0F8A
:101FA000843189F0882379F0883169F021E08C311F
:101FB00059F4E881F9810084F185E02DCE0109957D
:101FC00021E0892B09F420E0822FDF91CF91089541
:101FD00080E0FBCFCF92DF92EF92FF92CF93DF931F
:101FE000EC018C85843068F40E94970F0E94940263
:101FF0006B017C018C850E94BC0F811109C084E0BB
:102000008C87DF91CF91FF90EF90DF90CF90089574
:1020100061E070E080E090E00E9461020E94940222
:10202000AB01BC014C195D096E097F098D859E8548
:10203000B0E0A0E0481759076A077B07D8F28C8503
:102040000E94A30FDCCFCF93FC01C08D80E591E00F
:102050000E94520160E270E08C2F0E94870F62E0C4
:1020600070E08C2F0E946A0F84FD16C062E070E061
:102070008C2F0E946A0F83FF0AC048E162E070E083
:102080008C2F0E94410880E090E0CF91089580E578
:1020900091E00E945201E3CF40E162E070E08C2FBA
:1020A0000E94410881E0F0CFCF93DF931F92CDB71C
:1020B000DEB741E050E0BE016F5F7F4F90E080E00F
:1020C0000E94DF0E89810F90DF91CF910895CF9309
:1020D000DF93C4E1D0E00E945410882361F061E0F6
:1020E00070E080E090E00E9461022197A1F780E01B
:1020F000DF91CF91089581E0FBCFCF92DF92EF92F5
:10210000FF920F931F93CF93DF93CDB7DEB7C454E5
:10211000D1090FB6F894DEBF0FBECDBFFC0182819E
:102120009381A481B58123968CAF9DAFAEAFBFAF35
:10213000239721E023962FAF239723964CAD5DADD7
:102140006EAD7FAD23974BAB5CAB6DAB7EAB89AF18
:102150009AAFABAFBCAF8DA79EA7AFA7B8AB28AB6C
:102160004DA55EA56FA578A94FA358A769A77AA723
:102170002EAB4BA95CA96DA97EA949A35AA36BA359
:102180007CA38B8F9C8FAD8FBE8F43ED51E05C8B1A
:102190004B8B3FEF3D8B3E8B3F8B188E5E874D8781
:1021A0002AA7CFA0D8A4E9A4FAA4CF86D88AE98A1E
:1021B000FA8A2CA309A11AA12BA13CA109871A878D
:1021C0002B873C875A8349838B839C83AD83BE8353
:1021D000809107048111AFC060E372E080E090E07D
:1021E0000E946102DFB6F8940FEF11E033E1E32EB5
:1021F00032E0F32E80910404811125C0F80184910E
:10220000F7019491E82FF0E0EE0FFF1FEF51FE4F22
:10221000A591B4918C91982321F461E08AE00E9409
:10222000B40161E08AE00E9400028CB580618CBD3F
:102230008CB580648CBD61E08DE00E94000261E09D
:102240008BE00E940002809104048F5F809304045D
:10225000DFBEF8010491E02FF0E0EE0FFF1FE9521E
:10226000FE4F859194919093030480930204F701AB
:10227000E490E092010461E08AE00E9400020E9482
:10228000190780E591E00E94520184E380930504E0
:1022900080E80E94E5070E946710882309F481C046
:1022A00088E00E94E5070E945410883009F079C048
:1022B00080E10E94E5070E945410803109F071C04E
:1022C00080E00E94E5070E945410182F811169C018
:1022D00041E050E0BE016D5B7F4F8FE190E00E94D6
:1022E000DF0E24968FAD2497833009F05AC080E426
:1022F0008093060442E06EE170E0812F0E94410865
:1023000042E06FE170E0812F0E9441081F5F1430AE
:1023100089F740E06EE170E0812F0E94410840E0C3
:102320006FE170E0812F0E9441081F5F183089F72C
:1023300081E08093070480E591E00E94520146E02D
:1023400050E06AE171E089E090E00E94350744E0E6
:1023500050E0BE016D5F7F4F8FE090E00E94350737
:1023600044E050E0BE01615F7F4F81E090E00E9459
:10237000350744E050E0BE016B5E7F4F85E090E0A2
:102380000E94350781E08C8789859A85AB85BC855D
:102390008093D1049093D204A093D304B093D40437
:1023A0006FC087E38093050480E80E94E5070E94E0
:1023B0006710882339F188E00E94E5070E945410D5
:1023C000883001F580E10E94E5070E945410182F23
:1023D0008031C1F480E00E94E5070E945410811111
:1023E00011C041E050E0BE016D5B7F4F89E390E09A
:1023F0000E94DF0E24968FAD2497843019F4109339
:10240000060496CF83E38093050480E80E94E507E5
:102410000E946710882391F180E10E94E5070E94E5
:102420005410803159F582E10E94E5070E94541052
:10243000823121F580E00E94E5070E94541081114D
:102440001DC084E08093060415E525961FAF2597EF
:1024500041E050E0BE016C5B7F4F8BE190E00E9459
:10246000350724961FAF249741E050E0BE016D5B15
:102470007F4F8AE190E00E9435075ACF1092050401
:10248000CC5BDF4F0FB6F894DEBF0FBECDBFDF9140
:10249000CF911F910F91FF90EF90DF90CF90089513
:1024A0001F93CF93DF931F92CDB7DEB7182F80E530
:1024B00091E00E945201812F0E94F80727E0129FAD
:1024C000F0011124E359FC4F22813381377041E040
:1024D00050E0BE016F5F7F4F820F931F0E94DF0E9F
:1024E00089810F90DF91CF911F910895FC01808D1C
:1024F000843040F4218D328D232B21F00E94501224
:1025000090E008958FEF9FEF0895CF93DF93FC0144
:102510002485243028F08FEF9FEFDF91CF9108952D
:10252000EC010190F081E02D0084F185E02D09950A
:10253000892B89F38C850E94501290E0EECFDA014E
:10254000E0910604F0E0FE2FEE27E60FF71F90E083
:10255000982F8827A901BD018E0F9F1F0C94DF0EB5
:102560008F929F92AF92BF92CF92DF92EF92FF92A3
:102570001F93CF93DF93CDB7DEB72C970FB6F894A8
:10258000DEBF0FBECDBF2091050414E0222339F138
:102590006B017C0180E591E00E9452015E0127E021
:1025A000A20EB11C450110E063E070E0812F0E9493
:1025B0006A0FF40181934F01882349F11F5F1430A2
:1025C00099F710E0F50181915F018D31D9F08831E3
:1025D000C9F08A518230B0F01F5F143099F7812F13
:1025E0002C960FB6F894DEBF0FBECDBFDF91CF9112
:1025F0001F91FF90EF90DF90CF90BF90AF909F9092
:102600008F90089560E170E0812F0E94870FA12EC6
:10261000B12C83EE93E00197F1F742E870E060E0BF
:10262000812F0E9441084FEF62E070E0812F0E94ED
:102630004108B601C114D10491F480911801909120
:10264000190101968115F0EC9F0708F45CC0909386
:102650001901809318016091180170911901812F5F
:102660000E942C0886E0E6E2F1E0DE01119601907E
:102670000D928A95E1F7F70183818F778C838481AE
:102680008D8385818E83A7014E5F5F4F24E030E00C
:102690006CE070E0812F0E940608B601812F0E9435
:1026A000170826E030E0AE014F5F5F4F66E070E054
:1026B000812F0E94060861E070E0812F0E94870F41
:1026C00027E02A9DC0012B9D900D11249C012359C8
:1026D0003C4F7901F9011182108222E030E0AE0115
:1026E000455F5F4F68E270E0812F0E949F128B85EB
:1026F0009C85982789279827F701938382831682E0
:10270000158214826CCF80E090ECA1CFCF92DF9243
:10271000EF92FF920F931F93CF93DF9300D000D0DF
:1027200000D0CDB7DEB78C016B017A01FC01808D42
:10273000843010F40E94A30F83ED91E09A83898383
:10274000F60182819381A481B5818B839C83AD83C3
:10275000BE83B701CE0101960E94B012F801808FAE
:102760008430A0F4F586E486128E118E81E02696E0
:102770000FB6F894DEBF0FBECDBFDF91CF911F9192
:102780000F91FF90EF90DF90CF90089580E0EFCF12
:10279000AF92BF92CF92DF92EF92FF920F931F936F
:1027A000CF93DF9300D000D000D0CDB7DEB7082F95
:1027B0006B0180E591E00E9452019E012F5F3F4F27
:1027C0007901590110E063E070E0812F0E946A0FE7
:1027D000F50181935F01882341F11F5F143099F760
:1027E00010E0F70181917F018D31D1F08831C1F086
:1027F0008A518230A8F01F5F143099F7812F2696F6
:102800000FB6F894DEBF0FBECDBFDF91CF911F9101
:102810000F91FF90EF90DF90CF90BF90AF90089511
:1028200060E170E0812F0E94870FE12EF12C83EE92
:1028300093E00197F1F7402F70E060E0812F0E9454
:1028400041084FEF62E070E0812F0E944108B6011D
:10285000CD2889F480911801909119010196811574
:10286000F0EC9F0798F19093190180931801609103
:10287000180170911901812F0E942C0861E070E00D
:10288000812F0E94870F27E02E9DC0012F9D900D64
:1028900011249C0123593C4F7901F90111821082C6
:1028A00022E030E0AE014B5F5F4F68E270E0812FC5
:1028B0000E949F128D819E81982789279827F70172
:1028C0009383828316821582148298CF80E090ECE5
:1028D000CACFCF92DF92EF92FF921F93CF93DF93F5
:1028E000EC017B016A018C85843048F40E94BC0FA6
:1028F000882319F08C850E94970F84E08C87F7015C
:1029000082819381A481B5810097A105B10551F41D
:1029100090E080E0DF91CF911F91FF90EF90DF90EA
:10292000CF9008958F3F9F4FAF4FBF4F89F3809156
:102930000504811103C084E08C87EACF70E060E079
:1029400081E20E94C813182F8C87843008F780E535
:1029500091E00E945201A7014E5F5F4F24E030E0FA
:102960006CE070E0812F0E940608B601812F0E9462
:10297000170864E070E0812F0E94870F0E94940284
:102980006B017C018C850E94BC0F873109F18C3171
:10299000F9F0882309F4BCCF0E949402AB01BC017A
:1029A0004C195D096E097F098D859E85B0E0A0E018
:1029B00084179507A607B70738F061E070E080E05C
:1029C00090E00E946102DECF8C850E94A30FB3CFFE
:1029D00081E090E09FCF0F931F93CF93DF93EC01A3
:1029E0008B01888D843010F40E94A30F8091050420
:1029F000811107C094E0988FDF91CF911F910F91C3
:102A00000895B80182E00E94C813888F843030F4A2
:102A10001D870C871A8E198E81E0EECF80E0ECCFF7
:102A20007F928F929F92AF92BF92CF92DF92EF925E
:102A3000FF920F931F93CF93DF9300D0CDB7DEB7F4
:102A4000782E8B014A01590122E030E0AE014F5F40
:102A50005F4F64E270E00E949F12E980FA80FE24DA
:102A6000EF24FE24E00EF11E97013770409105041B
:102A7000072D10E0433309F042C0085F1F4F102FAD
:102A80000027110F110F110FC901800F911F47333C
:102A9000C9F1A9014A0D5B1D4130584098F160E031
:102AA00078E06B01C21AD30AA601B4010E9435076F
:102AB000A5014C195D09B4016C0D7D1DC8010E9472
:102AC0003507EA0CFB1CF982EA8222E030E0AE0115
:102AD0004F5F5F4F64E270E0872D0E9406080F9001
:102AE0000F90DF91CF911F910F91FF90EF90DF90AA
:102AF000CF90BF90AF909F908F907F900895005F90
:102B00001F4FBDCFA501B401DACFEF92FF921F9303
:102B1000CF93DF9300D0CDB7DEB7182F22E030E09F
:102B2000AE014F5F5F4F60E270E00E949F12E9804C
:102B3000FA80FE24EF24FE2422E030E0AE014F5F55
:102B40005F4F60E270E0812F0E949F1289819A811D
:102B5000982789279827E816F90689F487E0189FAF
:102B6000F0011124E359FC4FF582E482C7010F9074
:102B70000F90DF91CF911F91FF90EF9008957C010E
:102B8000DBCF1F93CF93DF93182F80E591E00E9456
:102B90005201812F0E948515EC0163E070E0812FC6
:102BA0000E946A0F873121F08C3111F0D0E0C0E033
:102BB000CE01DF91CF911F910895CF93DF93EC0168
:102BC0008C85843060F40E94BC0F873111F08C3109
:102BD00031F48C850E94C1158115984088F3DF91EE
:102BE000CF910895FC018485843010F40C94C115B4
:102BF00090E080E008959F92AF92BF92CF92DF92D3
:102C0000EF92FF920F931F93CF93DF938C015B01A1
:102C1000942EE52EFC01C688D788F08C80E591E0E3
:102C20000E9452018F2D0E948515C92DDE2D8C1713
:102C30009D0708F4EC019E01A501B6018F2D0E94AD
:102C40001015F801868997898C0F9D1F978B868BAD
:102C5000CE01DF91CF911F910F91FF90EF90DF9008
:102C6000CF90BF90AF909F9008958F929F92AF9218
:102C7000BF92CF92DF92EF92FF920F931F93CF9369
:102C80006C015B018A01FC01C485C430F0F57A0156
:102C90004130584018F0E12C88E0F82E80E591E0B2
:102CA0000E9452018C2F0E9485154C0163E070E058
:102CB0008C2F0E946A0F873111F08C3149F58E14E8
:102CC0009F0460F380E591E00E9452019701A50105
:102CD00070E060E08C2F0E94101560E270E08C2F95
:102CE0000E94870F62E070E08C2F0E946A0F84FDC3
:102CF00017C063E070E08C2F0E946A0F81110BC037
:102D000081E090E0F6019383828310E000E010C040
:102D1000F12CE12CD7CF80E591E00E945201E2CF67
:102D200040E162E070E08C2F0E944108EF2841F3FF
:102D3000C801CF911F910F91FF90EF90DF90CF903E
:102D4000BF90AF909F908F900895FF920F931F9325
:102D5000CF93DF9300D0CDB7DEB7F82E22E030E07E
:102D6000AE014F5F5F4F66E270E00E949F120981E3
:102D70001A8110270127102722E030E0AE014F5FB3
:102D80005F4F66E270E08F2D0E949F1289819A81C9
:102D90009827892798270817190749F4C8010F9021
:102DA0000F90DF91CF911F910F91FF9008958C01AB
:102DB000E3CF1F93CF93DF93182F87E0189FE00195
:102DC0001124C359DC4F88819981009761F480E513
:102DD00091E00E945201812F0E94A5162E81821B34
:102DE000910999838883DF91CF911F910895FC0108
:102DF0008485843010F40C94D91690E080E0089516
:102E00004F925F927F928F929F92AF92BF92CF929A
:102E1000DF92EF92FF920F931F93CF93DF9300D037
:102E2000CDB7DEB7782E6B014A01A82EB12C27E072
:102E3000829FC0011124FC01E359FC4F7F010081F6
:102E4000118180E591E00E9452010815190554F4A2
:102E5000872D0E94A516F70126818C01021B1109FE
:102E6000118300830115110529F563E070E0872DBA
:102E70000E946A0F843159F0882349F001E010E084
:102E80008C3111F410E000E0119501951109C80191
:102E90000F900F90DF91CF911F910F91FF90EF90C6
:102EA000DF90CF90BF90AF909F908F907F905F907A
:102EB0004F900895801691060CF4840187E08A9D56
:102EC000F0018B9DF00D1124E359FC4FE280F3805B
:102ED000C114D10451F12701F7E05F22872D0E9430
:102EE000F807840D951D20910504273309F453C07C
:102EF0009801240D351D2130384008F44CC020E0E5
:102F000038E0490184189508A401B6010E94DF0E3B
:102F10002601480C591C6801C818D908872D0E9441
:102F2000F807A601B2010E94DF0EE00EF11E87E055
:102F30008A9DF0018B9DF00D1124E359FC4FF38223
:102F4000E28220813181201B310B318320838681F5
:102F5000800F912F911D8A3F910510F4232BF1F4DE
:102F600087E08A9DF0018B9DF00D1124E359FC4F01
:102F70001682F982EA8222E030E0AE014F5F5F4FB5
:102F800068E270E0872D0E94060860E470E0872DFB
:102F90000E94870F7CCFA801B601C5CF868377CF6B
:102FA000CF93DF93FC01218D328D2115310529F45A
:102FB0008FEF9FEFDF91CF910895EC01808D421745
:102FC000530708F0A9010E9400171816190684F784
:102FD000298D3A8D281B390B3A8F298FEBCF0F9310
:102FE0001F93CF93DF931F92CDB7DEB7FC01218DE6
:102FF000328D232B41F48FEF9FEF0F90DF91CF9114
:103000001F910F9108958C0141E050E0BE016F5F68
:103010007F4FFC01808D0E940017181619065CF77F
:10302000F801818D928D0197928F818F898190E037
:10303000E4CFCF93DF931F92CDB7DEB741E050E0EE
:10304000BE016F5F7F4FFC0184850E940017181638
:10305000190634F4898190E00F90DF91CF910895A3
:103060008FEF9FEFF9CFFC018485843010F40C942E
:10307000001790E080E008950F931F93CF93DF93A4
:1030800000D0CDB7DEB7FC0124852430E0F48C01FC
:1030900080E591E00E94520122E030E0AE014F5FF6
:1030A0005F4F60E170E0F80184850E949F12898182
:1030B0009A819827892798270F900F90DF91CF91B9
:1030C0001F910F91089590E080E0F6CF0F931F932A
:1030D000CF93DF9300D0CDB7DEB7FC012485243039
:1030E000E0F48C0180E591E00E94520122E030E0A2
:1030F000AE014F5F5F4F64E070E0F80184850E948D
:103100009F1289819A819827892798270F900F907D
:10311000DF91CF911F910F91089590E080E0F6CF5D
:10312000CF93DF93EB01FC0183894BE050E06AEE23
:1031300071E08C30C1F058F44BE050E064EE71E087
:103140008B3089F04BE050E06CEF71E00CC04BE04D
:1031500050E060EF71E0853131F04BE050E066EF18
:1031600071E0863179F7CE010E94802D1B86DF91B8
:10317000CF9108950F931F93CF93DF938C01EB01B1
:1031800088E2DB011D928A95E9F7F801828193813B
:103190000E94901881E090E0A0E0B0E08C879D87CD
:1031A000AE87BF87F80184819581A681B781888B1E
:1031B000998BAA8BBB8B8CE090E0A0E0B0E08C8B6D
:1031C0009D8BAE8BBF8BBE01828193810E94EC06EA
:1031D000D8011296ED91FC9183898C3009F441C09D
:1031E00078F48B3009F1188E198E1A8E1B8E1C8E76
:1031F0001D8E1E8E1F8E18A219A21AA21BA22CC0F1
:103200008551823080F780E090E0A8ECB2E4888FAE
:10321000998FAA8FBB8F1C8E1D8E1E8E1F8E8DECDC
:103220009CECACECBDE314C080E090E0A0EAB2E41A
:10323000888F998FAA8FBB8F80E090E0A0EAB1E4DD
:103240008C8F9D8FAE8FBF8F80E090E0A0EAB0E4BE
:1032500088A399A3AAA3BBA3DF91CF911F910F913C
:10326000089580E090E0AEEBB2E4E2CF0F931F93BD
:10327000CF93DF938C01EB0188E2DB011D928A95ED
:10328000E9F7F801828193810E94901881E090E033
:10329000A0E0B0E08C879D87AE87BF87F80184816E
:1032A0009581A681B781888B998BAA8BBB8B8DE08A
:1032B00090E0A0E0B0E08C8B9D8BAE8BBF8BBE010D
:1032C000828193810E94EC06D8011296ED91FC91C7
:1032D00083898C3091F178F48B30B1F0188E198E8F
:1032E0001A8E1B8E1C8E1D8E1E8E1F8E18A219A26A
:1032F0001AA21BA21DC08531A9F1863179F780E0A1
:1033000090E0AAEFB2E432C080E090E0A8E4B2E43A
:10331000888F998FAA8FBB8F1C8E1D8E1E8E1F8E3D
:1033200080E090E0A0E0B0E488A399A3AAA3BBA3A7
:10333000DF91CF911F910F91089580E090E0A0E779
:10334000B2E4888F998FAA8FBB8F80E090E0A0EACB
:10335000B1EC8C8F9D8FAE8FBF8F80E090E0A0E0AE
:10336000BFE3E2CF80E090E0A0EAB2E4888F998FDB
:10337000AA8FBB8F80E090E0A0E2B2EC8C8F9D8F93
:10338000AE8FBF8F8DEC9CECACECBDE3CDCF0F933B
:103390001F93CF93DF93CDB7DEB728970FB6F8947E
:1033A000DEBF0FBECDBF8C01D80159964D915C9107
:1033B0005A974115510551F0ED91FC91048CF58D12
:1033C000E02D70E060E0C8010995EECFF801808D36
:1033D0000E94D916892BB1F148E050E0BE016F5F21
:1033E0007F4FD80158968C910E9400171816190625
:1033F000F4F4D801509684E0FE01319601900D92CC
:103400008A95E1F78D8190E0982F88272E81820F91
:10341000911DF801958B848B8F81282F30E0322FFE
:1034200022278885820F932F911D928F818F289656
:103430000FB6F894DEBF0FBECDBFDF91CF911F91C5
:103440000F91089590E080E0F2CF4F925F926F92DB
:103450007F928F929F92AF92BF92CF92DF92EF9224
:10346000FF920F931F93CF93DF93CDB7DEB7639790
:103470000FB6F894DEBF0FBECDBF7C016B013A01E1
:10348000FB0120E090E080E06AE03191332309F411
:1034900061C040ED430F4A3008F04DC0689FA00165
:1034A000699F500D1124CA01C097830F911D37FDEC
:1034B0009A958F3F910549F340F3F701428153817B
:1034C000648175818091AD049091AE04A091AF04A8
:1034D000B091B004481759076A077B0709F40DC279
:1034E0008701085F1F4F0E9494026F7077277C5FEF
:1034F000C8010E94EB14813009F004C283ED91E011
:103500009A838983F70182819381A481B5818B831A
:103510009C83AD83BE8345E350E0BE016F5F7F4F68
:10352000C8010E949608892BA9F5D12CC12CC8018D
:103530000E94AF0F17C03E3209F0BFCF233009F40D
:10354000BCCFD301A20FB11D12968C932F5F90E0D8
:1035500080E09BCF233009F0B0CFF3018583CC24EA
:10356000C394D12CC60163960FB6F894DEBF0FBE8C
:10357000CDBFDF91CF911F910F91FF90EF90DF9022
:10358000CF90BF90AF909F908F907F906F905F9003
:103590004F9008950E949402F7017783668342E07A
:1035A00050E0B7016A5F7F4FC8010E94FB1581E0C0
:1035B00090E09A83898342E050E0BE016F5F7F4FC5
:1035C000C8010E94FB1580E091E09A83898342E064
:1035D00050E0BE016F5F7F4FC8010E94FB151A8249
:1035E000198242E050E0BE016F5F7F4FC8010E9428
:1035F000FB1542E050E0BE016F5F7F4FC8010E94A3
:10360000FB1542E050E0BE016F5F7F4FC8010E9492
:10361000FB155601F6018081882301F16501F60151
:1036200081912F01882311F08E32B1F446018A185E
:103630009B081814190474F48D8641E050E0BE0113
:10364000635F7F4FC8010E94FB15A401B501C8014B
:103650000E94FB155201DECF6201E1CF1D8641E0E1
:1036600050E0BE01635F7F4FC8010E94FB15C12C73
:10367000DD24D394DA82C98242E050E0BE016F5F5C
:103680007F4FC8010E94FB15DA82C98242E050E0F8
:10369000BE016F5F7F4FC8010E94FB15C8010E94E9
:1036A0002310892B09F441CFF3E0AF2EB12C230175
:1036B00022E0420E511CD4C0F70142815381648143
:1036C0007581808D918DA28DB38D481759076A073A
:1036D0007B0709F008C1848D958DC59709F003C15A
:1036E00081A192A15DEFC52EDD24DA940C970CF434
:1036F000ADC04CE050E0BE016F5F7F4FC8010E943B
:10370000D0178B819C819827892798279A8B898B42
:10371000F7014681578129813A814217530709F001
:10372000E7C097FFE5C08F7092703BEFC32EDD249A
:10373000DA94892B09F08AC06F8078847624672414
:1037400076242AEFC22EDD24DA946114710409F480
:103750007DC0D12CC12C8D819E81982789279827E7
:10376000C816D906F8F441E050E0BE01635F7F4F10
:10377000C8010E94D0174D85442331F050E070E01D
:1037800060E0C8010E94D0178D858111ECCF44E024
:1037900050E070E060E0C8010E94D017FFEFCF1A40
:1037A000DF0AD9CF912C812C41E050E0BE016D5E43
:1037B0007F4FC8010E94D0174B89842F807C09F06D
:1037C0006CC0442331F050E070E060E0C8010E941A
:1037D000D0178B898111E8CF42E050E0BE01615FD4
:1037E0007F4FC8010E94D01742E050E0BE01635FE6
:1037F0007F4FC8010E94D01744E050E070E060E0C5
:10380000C8010E94D01742E050E0BE016F5E7F4FBA
:10381000C8010E94D0178F85988949895A898115D6
:10382000914009F043C0CD84DE84DC24CD24DC2427
:1038300081E0C816D104D1F54115544009F04AC0C1
:1038400044E050E0B201C8010E94D01721E0A21A62
:10385000B10809F46CCEFFEFCF16DF0609F067CE92
:103860000E9494023B014C01C8010E94C71918161E
:1038700019060CF421CF0E94940266197709880971
:103880009909693873418105910548F562E370E053
:1038900080E090E00E946102E7CF41E050E070E0FC
:1038A00060E0C8010E94D0171B8A93CF5427452798
:1038B000542770E060E0C8010E94D017FFEF8F1A14
:1038C0009F0A6814790409F06FCF96EFC92EDD24A2
:1038D000DA94BCCFE7EFCE2EDD24DA94B7CFCC2438
:1038E000CA94DC2CB3CF6EEFC62EDD24DA94AECFB3
:1038F0004CEFC42EDD24DA94A9CF8EEFC82EDD2440
:10390000DA9430CED12CC12C2DCECF92DF92EF9213
:10391000FF920F931F93CF93DF93CDB7DEB7AF978F
:103920000FB6F894DEBF0FBECDBF7C016A0103ED78
:1039300011E01A8309831C861B8688EE93E0A0E0C1
:10394000B0E08D879E87AF87B88B87E391E09A8739
:103950008987188F0F8B198E1A8E1B8E1C8E84E010
:1039600089A31BA70AA71CA61DA61EA61FA6809199
:10397000D1049091D204A091D304B091D4048EA329
:103980009FA3A8A7B9A78B839C83AD83BE8318860A
:103990001F82AE01465D5F4FCE0101960E94251A3F
:1039A00081309105B1F4D701ED91FC910488F5893E
:1039B000E02D1DA30CA38CA59DA5AEA5BFA58EA330
:1039C0009FA3A8A7B9A7A601BE016C5D7F4FC70141
:1039D0000995AF960FB6F894DEBF0FBECDBFDF914D
:1039E000CF911F910F91FF90EF90DF90CF900895AE
:1039F000CF92DF92EF92FF920F931F93CF93DF93BB
:103A0000CDB7DEB7AF970FB6F894DEBF0FBECDBF10
:103A10008C016B017A0183ED91E09A8389831B828B
:103A20001C821D821E821C861B8648EE53E060E0CD
:103A300070E04D875E876F87788B27E331E03A87A8
:103A40002987988F8F8B198E1A8E1B8E1C8E24E0DF
:103A500029A39BA78AA71CA61DA61EA61FA6D80140
:103A60001C968C91843060F40E94BC0F882321F056
:103A7000F80184850E94970F84E0D8011C968C93EE
:103A80008091D1049091D204A091D304B091D40438
:103A90008EA39FA3A8A7B9A78B839C83AD83BE8366
:103AA00018861F82AE01465D5F4FB601CE010196BA
:103AB0000E94251A0097C1F0D801ED91FC9106846F
:103AC000F785E02D83ED91E09DA38CA38CA59DA5AA
:103AD000AEA5BFA58EA39FA3A8A7B9A7A701BE01A6
:103AE0006C5D7F4FC8010995AF960FB6F894DEBFA5
:103AF0000FBECDBFDF91CF911F910F91FF90EF903F
:103B0000DF90CF900895EF92FF920F931F93CF9382
:103B1000DF9300D000D0CDB7DEB78C017B01FB0175
:103B200084858430A8F083ED91E0F801918380834F
:103B30001282138214821582C8010F900F900F9089
:103B40000F90DF91CF911F910F91FF90EF9008950B
:103B500080E591E00E94520124E030E0AE014F5F29
:103B60005F4F6CE070E0F70184850E949F1283ED47
:103B700091E0F8019183808389819A81AB81BC8136
:103B800082839383A483B583D7CF0C94112C0C9498
:103B9000112CCF92DF92EF92FF920F931F93CF934E
:103BA000DF93CDB7DEB728970FB6F894DEBF0FBE10
:103BB000CDBF8C017B016A0161E072E088E094E096
:103BC0000E94C20B0115110529F0B80188E094E0AC
:103BD0000E94C20B67E172E088E094E00E94C20B91
:103BE0001A8219821C821B821E821D8270E060E094
:103BF000CE0101960E949A0B29813A81811132C02F
:103C00002115310519F0C9010E94112C1A8219825F
:103C10001E821D821C821B828701CE0CDF1C4D81FF
:103C20005E81C016D10631F1F80181918F018F8339
:103C300018867A01FFEFEF1AFF0AB701CE0101964D
:103C40000E949A0B882359F329813A818D819E81A4
:103C5000BE01695F7F4F820F931F0E94792DFE8204
:103C6000ED82DDCF1E821D8267ED71E0C9010E94E9
:103C7000792DD2CF69817A8188E094E00E94A104F5
:103C800065ED71E088E094E00E94C20B89819A8121
:103C9000009711F00E94112C28960FB6F894DEBF01
:103CA0000FBECDBFDF91CF911F910F91FF90EF908D
:103CB000DF90CF9008950C94112C1F920F920FB6A5
:103CC0000F9211242F933F938F939F93AF93BF93A2
:103CD0008091650390916603A0916703B09168039A
:103CE0003091640323E0230F2D3758F50196A11D71
:103CF000B11D209364038093650390936603A093A2
:103D00006703B09368038091690390916A03A0915F
:103D10006B03B0916C030196A11DB11D80936903E3
:103D200090936A03A0936B03B0936C03BF91AF9120
:103D30009F918F913F912F910F900FBE0F901F90E9
:103D4000189526E8230F0296A11DB11DD2CF1F9210
:103D50000F920FB60F9211242F933F934F935F93BF
:103D60006F937F938F939F93AF93BF93EF93FF9343
:103D700088E094E00E941F05FF91EF91BF91AF9101
:103D80009F918F917F916F915F914F913F912F9173
:103D90000F900FBE0F901F9018951F920F920FB6A5
:103DA0000F9211242F938F939F93EF93FF93E091A2
:103DB0001804F09119048081E0911E04F0911F0411
:103DC00082FD1BC09081809121048F5F8F732091B1
:103DD0002204821741F0E0912104F0E0E85FFB4FFC
:103DE000958F80932104FF91EF919F918F912F9157
:103DF0000F900FBE0F901F9018958081F4CFCF9237
:103E0000DF92EF92FF920F931F93CF93DF93E8E03F
:103E1000F4E01382128248EE53E060E070E04483E5
:103E200055836683778387E691E09183808385EC71
:103E300090E09587848784EC90E09787868780EC74
:103E400090E0918B808B81EC90E0938B828B82EC65
:103E500090E0958B848B86EC90E0978B868B118E0F
:103E6000128E138E148EE5EAF4E083ED91E09183D7
:103E700080831282138214821582EBEAF4E091832C
:103E800080831282138214821582E1EBF4E0918325
:103E900080831282138214821582E7EBF4E091830F
:103EA00080831282138214821582EDEBF4E09183F9
:103EB00080831282138214821582E3ECF4E09183F2
:103EC00080831282138214821582E9ECF4E09183DC
:103ED00080831282138214821582E5EDF4E09183CF
:103EE00080831282138214821582EFECF4E09183B6
:103EF00080831282138214821582EBEDF4E09183A9
:103F000080831282138214821582EEE6F5E091839B
:103F100080831282138214821582AAE4B5E024E021
:103F200015962C9315972BE016962C931697EDE08B
:103F3000F2E0E4911796EC931797E9EFF1E0E49142
:103F40001896EC93189730E8C32E3EE3D32EE12C5D
:103F5000F12C1D96CD92DD92ED92FC9250975396E6
:103F60002C93539725EC31E055963C932E93549720
:103F70000A2E1B2E57961C920E92112456970FEF65
:103F80001FEF980158960D931D932D933C935B97CB
:103F9000E7EBF1E05D96FC93EE935C970A2E1B2E07
:103FA0005F961C920E9211245E9790960D931D932E
:103FB0002D933C939397E4E4F5E0918380833AE07A
:103FC00032832EE623831482ACE0A583EEE3F5E092
:103FD0009183808332832383148223E02583EFE25D
:103FE000F5E013821282448355836683778325E844
:103FF00031E03183208328E0248728EE33E03687C0
:104000002587C6E0D5E01B821A8229E731E0398393
:1040100028839C8F8B8F1D8E1E8E1F8E18A28FEF74
:104020009FEF98A78FA3FD83EC831EA21DA280E0C3
:1040300091E00E94752B9F838E8380E091E09987A9
:1040400088878FE090E09B878A879D878C8760E0D8
:1040500082E00E940002EBE0F2E0E491A8EFB4E01D
:10406000EC93E7EFF1E0E491F0E0EE0FFF1FE55194
:10407000FE4F8591949112969C938E9311971B9667
:104080001C921B971D961C921D971C961C921C97A8
:104090001A961C921A9719961C92199718961C92A8
:1040A000189717961C92179716961C9216971596A6
:1040B0001C92159714961C92149713961C921397A2
:1040C000E1EEF4E0168A158A1182B287A187178281
:1040D0001086108289E0838381E0848385838683D0
:1040E000DF91CF911F910F91FF90EF90DF90CF90D4
:1040F0000895CF93DF93CDB7DEB7AD970FB6F894A1
:10410000DEBF0FBECDBF789484B5826084BD84B518
:10411000816084BD85B5826085BD85B5816085BDC2
:1041200080916E00816080936E001092810080917A
:104130008100826080938100809181008160809302
:104140008100809180008160809380008091B10027
:1041500084608093B1008091B00081608093B00052
:1041600080917A00846080937A0080917A008260E6
:1041700080937A0080917A00816080937A008091A8
:104180007A00806880937A001092C100E091180450
:10419000F091190482E08083E0911404F0911504F9
:1041A0001082E0911604F091170480E18083109250
:1041B0002004E0911C04F0911D0486E08083E091CE
:1041C0001A04F0911B04808180618083E0911A04BD
:1041D000F0911B04808188608083E0911A04F09143
:1041E0001B04808180688083E0911A04F0911B0495
:1041F00080818F7D808303ED11E01A830983809194
:10420000460590914705A0914805B09149058B83DB
:104210009C83AD83BE83CE0101960E947D106CED20
:1042200075E080E090E00E9461021A83098380912A
:10423000400590914105A0914205B09143058B83C3
:104240009C83AD83BE83CE0101960E943B0189EC25
:104250009DE19093200580931F0562E080914F05BA
:104260000E9400020E949402605D774081099109DA
:1042700060935305709354058093550590935605AC
:1042800087E380935C05FCEFCF2EDD24DA940E9457
:1042900094020091600310916103209162033091B8
:1042A0006303601B710B820B930B653F71408105AB
:1042B000910508F4E5C10E94940260936003709335
:1042C000610380936203909363030E9477018111DD
:1042D00087C1E2EC7E2E0E947701811181C16BE1E2
:1042E00072E088E094E00E94C20B0E947701811185
:1042F0005EC180910A0590910B05DC01ED91FC9166
:104300000688F789E02D0995882309F470C0E1E05B
:10431000F0E0F0931505E093140587E0ECE2F1E09E
:10432000DE01119601900D928A95E1F7DE0111965A
:1043300085E090E02D91E0910C05F0910D05E80FDE
:10434000F91F208301968C309105A1F700910C058F
:1043500010910D05D8011C967C921C978091110537
:104360001D968C931D97809110051E968C93E0905E
:104370000E05F0900F05B70182E492E00E944F26EF
:104380004196E816F90608F06BC080910A059091F5
:104390000B05DC01ED91FC910488F589E02D099570
:1043A00066E772E088E094E00E94C20B40912D0520
:1043B00050912E05052E000C660B770B77FF0AC176
:1043C000CB01BA010E943F0C62E872E088E094E001
:1043D0000E94C20B65ED71E088E094E00E94C20B80
:1043E00068E873E180E090E00E94610274CF609120
:1043F00027057091280580910A0590910B05DC0135
:10440000ED91FC914091290550912A0561157105A6
:1044100071F00088F189E02D0995019709F477CFB3
:10442000EEEFFFEFF0932E05E0932D05B9CF068454
:10443000F785E02D73ED472E71E0572E5A824982A1
:104440000091230510912405209125053091260522
:104450000B831C832D833E83BE016F5F7F4FDCCFB8
:104460004FE050E0B80182E492E00E9455018C01D7
:10447000E0900E05F0900F05B70186E592E00E94EE
:104480004F26800F911F0296E816F90608F47DCF9B
:1044900060910C0570910D05A80186E592E00E94DF
:1044A00055018C01E0900E05F0900F05B7018DE5E8
:1044B00092E00E944F26800F911F0296E816F9069F
:1044C00008F463CF60910C0570910D05A8018DE58E
:1044D00092E00E945501AC014550510960910C05D4
:1044E00070910D0580E10E94A0020E9494026093E9
:1044F000160570931705809318059093190560931E
:104500001A0570931B0580931C0590931D058091DF
:104510000A0590910B05DC01ED91FC910084F18579
:10452000E02D0995892B11F50E94940200911A053E
:1045300010911B0520911C0530911D054B015C015C
:10454000801A910AA20AB30A20911205309113052C
:10455000A8EEB3E00E94192A86169706A806B906A7
:10456000B0F2D0922E05C0922D050FCFCE018596C8
:104570000E944E03643071058105910509F005CF55
:10458000E0910C05F0910D05838181111DC00E9401
:10459000940260931A0570931B0580931C059093F9
:1045A0001D0510921E0510922E0510922D056CE629
:1045B00072E088E094E00E94C20B65ED71E088E053
:1045C00094E00E94C20B87CE90E090932E058093DA
:1045D0002D05DBCE2AE088E094E00E94F30BF4CEB8
:1045E0000E947701882309F44BC00E9494024B017A
:1045F0005C012091100530911105A8EEB3E00E94F6
:10460000192A00911A0510911B0520911C05309163
:104610001D0524013501401A510A620A730A9301EB
:1046200082016017710782079307B0F000911605A9
:1046300010911705209118053091190524013501B5
:10464000401A510A620A730A9301820160177107C6
:104650008207930708F0CDC180911E05882309F4D5
:1046600099C1D0922E05C0922D0580910A05909196
:104670000B05DC01ED91FC910488F589E02D09958D
:104680000E94940200915C0310915D0320915E03EF
:1046900030915F03601B710B820B930B6938734180
:1046A0008105910508F4C9C00E94940260935C03DF
:1046B00070935D0380935E0390935F038091EA049F
:1046C0009091EB040E94BA0940E06CEC8091EA04FE
:1046D0009091EB040E9428094091E10464E48091E8
:1046E000EA049091EB040E9428090E9494024B0175
:1046F0005C018091E5048823E1F08091E604882341
:1047000009F45EC28091E10481115AC28091EA04E9
:104710009091EB040E949609813059F00E94940216
:10472000681979098A099B096E3E724081059105D5
:1047300068F380E191E00E94F2090E94352B4B0161
:10474000072E000C880B990B0E9498280EE413E0AA
:1047500022E044E00E943126C4010E94620CF1E88C
:104760008F16FFEF9F0689F025E58216910469F008
:10477000B80189E893E00E94792D62EA72E085EC45
:1047800093E00E94792D0E94450B88E091E00E9401
:10479000F2090E94352B2B01072E000C880B990B78
:1047A0000E9498280EE413E022E044E00E943126A3
:1047B000C2010E94620C31E843163FEF530689F0B4
:1047C00045E54416510469F0B80189E893E00E9478
:1047D000792D63EC72E085EC93E00E94792D0E94C4
:1047E000450B80E091E00E94F2090E94352B7B018D
:1047F000072E000C880B990B0E9498280EE413E0FA
:1048000022E044E00E943126C4010E94620C81E84B
:10481000E8168FEFF80689F095E5E916F10469F0DE
:10482000B80189E893E00E94792D64EE72E085EC8E
:1048300093E00E94792D0E94450B0E949402009102
:1048400058031091590320915A0330915B03601B68
:10485000710B820B930B693873418105910508F444
:1048600082C00E949402609358037093590380930E
:104870005A0390935B0360E070E0CB010E946102F9
:1048800085EC91E09EA38DA38091600590916105D8
:1048900098A78FA38091620590916305A09164050C
:1048A000B091650589A79AA7ABA7BCA7BE016F5FAA
:1048B0007F4FCE0185960E942C0E8D889E88AF88F2
:1048C000B88CA5019401C501B4010E94702B882306
:1048D00009F49FC189E891E00E94D10B87EB91E038
:1048E0009EA38DA3809168059091690598A78FA3D9
:1048F00080916A0590916B05A0916C05B0916D0552
:1049000089A79AA7ABA7BCA7BE016F5F7F4FCE0157
:1049100085960E94AC0D8D889E88AF88B88CA501C5
:104920009401C501B4010E94702B81118FC10EE466
:1049300013E022E044E0C501B4010E943126B80131
:1049400089E893E00E94792D67E273E085EC93E0BB
:104950000E94792D0E94450B6D897E898F89988DE3
:1049600042E00E94CA0C0E94940260347B448C4452
:10497000910518F0F0E0E0E0099580E090E0892BE7
:1049800009F485CC0E940B05882309F47CCC0E9495
:10499000000079CCE0910C05F0910D0580EC80834E
:1049A000E0910C05F0910D05118280910A0590911E
:1049B0000B0560910C0570910D05DC01ED91FC91EA
:1049C0000280F381E02D42E050E0099580921605C7
:1049D00090921705A0921805B092190580921A05B9
:1049E00090921B05A0921C05B0921D0581E080935A
:1049F0001E0580910A0590910B05DC01ED91FC915B
:104A00000084F185E02D0995892B09F439CECE017A
:104A100001960E944E032B01672B09F4CEC08092B1
:104A20001A0590921B05A0921C05B0921D05E091FD
:104A30000C05F0910D058081807F803309F09CC0CA
:104A400080911F0590912005892B09F419CE498189
:104A500050E0CA0102968E0F9F1FDF01A40FB51F01
:104A600011960C9110E0102F0027DC016C91060FBD
:104A7000111DBA016D5F7F4F6E0F7F1FA8010E944D
:104A8000602D8981E0910C05F0910D05E00FF11F7B
:104A9000E80FF11D1282A0910C05B0910D0529813E
:104AA00030E0C90102968A0F9B1F4C9146704DA7BA
:104AB00020901F0530902005423009F04BC0B8010E
:104AC000620F731FFD01E60FF71FE380F12CFE2C30
:104AD000EE244481E40EF11C4BEF5FEF421B530BBD
:104AE000401B510B440D551D6B5F7F4F6A0F7B1FA1
:104AF000F1010995E0910C05F0910D0580E48083AA
:104B0000E0910C05F0910D054DA44182E0910C055A
:104B1000F0910D05F282E0910C05F0910D05E38214
:104B200080910A0590910B0560910C0570910D051F
:104B3000DC01ED91FC910280F381E02D44E050E036
:104B400009958092160590921705A0921805B092CB
:104B5000190596CD4DEF5FEF421B530B401B510BD8
:104B6000440D551D2D5F3F4F200F311FBD01620FBA
:104B7000731FF101099584CD803CC9F480ED8083D9
:104B8000E0910C05F0910D05118280910A0590913C
:104B90000B0560910C0570910D05DC01ED91FC9108
:104BA0000280F381E02D42E050E0099569CD803D1F
:104BB00009F066CD10921E0563CD0E94770160CD8D
:104BC000E091E404E9508EEE92E0E33038F4F0E056
:104BD000EE0FFF1FE35AFE4F808191814C01B12CF3
:104BE000A12C8091E204882329F060E08091E30405
:104BF0000E94B401C501B4010E9461028091E204E7
:104C0000882309F496CD61E08091E3040E94B40109
:104C100090CD0EE413E022E044E0C501B4010E940F
:104C20003126B80189E893E00E94792D65E073E0B0
:104C300085EC93E00E94792D0E94450B6D897E8959
:104C40008F89988D42E00E94CA0C48CE82E691E09E
:104C50000E94D10B88CE80910C0590910D050C948B
:104C6000112CEF920F931F93CF93DF93E80134E061
:104C700047FD34E1042E000C550B57FF03C051953E
:104C800041955109E32E022F242FAE010E945A268E
:104C9000CE01DF91CF911F910F91EF900895FC010C
:104CA0006150704001900110D8F7809590958E0F5B
:104CB0009F1F0895A9E0B0E0E0E6F6E20C94C62953
:104CC0006A01F22EB02E102FFBE3AF2EA01608F4CF
:104CD0001BE31F5F012F27E0AE014F5F5F4F0E9474
:104CE000B927BC018981982F9970913009F43FC090
:104CF0009BE2E1FC04C09E2D9170E0FC3AC05E2D69
:104D00005071E82FE87083FF46C084E0911101C024
:104D100083E0EF2DE81B8F1508F0E0E0D6018E2F21
:104D200020E2552351F1992329F0D6019C93C60125
:104D300001966C0196012D5F3F4FE2FE24C08EE488
:104D4000D6018C9391E411969C93119712968C93B3
:104D5000D9018E2F90E281111BC0E20FF32FF11DBC
:104D600010828EEF9FEF2996ECE00C94E2299DE2F1
:104D7000C6CF90E2C4CF2D9381508111FCCFCE0ECF
:104D8000D11CE0E0D0CF8EE6D6018C9391E6DBCF4C
:104D90009D938150E0CF482F447082FF3DC084E056
:104DA000911101C083E08F1510F4EF2DE81BD6019F
:104DB0008E2F20E2552309F1992329F0D6019C93E7
:104DC000C60101966C0196012D5F3F4FE2FE1BC0AC
:104DD00089E4D6018C938EE411968C93119786E426
:104DE00012968C93D9018E2F90E2882309F4B5CFC7
:104DF0009D938150FACF2D9381508111FCCFCE0E1F
:104E0000D11CE0E0D9CF89E6D6018C938EE61196CD
:104E10008C93119786E6E4CF9B0177FF02C030E0C8
:104E200020E0A1E0B0E0911102C0B0E0A0E0F90103
:104E30003196AE0FBF1F8B2C912CBB2009F461C0A3
:104E40005401EFEFAE1ABE0AAA0DBB1DFA161B06DF
:104E500019F014F04F2D4A1B511188C0E3FC59C0C2
:104E60007601A42FB0E2A1114FC0C40ED11C99232A
:104E700009F45BC040E0D6011196F60190836D0104
:104E8000552309F448C0012F060F9A81582F5071FD
:104E900084FF03C0913309F4015010160CF047C091
:104EA000093008F008E0EEE2FE2E5B01A01AB1081E
:104EB00085019194819491082F3F320729F4D601FE
:104EC000FC92F60131966F016217730794F1021795
:104ED00013077CF5DB01A21BB30BAA24A394B12C0E
:104EE000AC0EBD1EAA0DBB1D11968C91215031092F
:104EF000D601119628153905F4F0F60180836D016D
:104F0000DBCFB12CA12CA0CFF701B1937F01A15031
:104F1000AACF9111B0CFD601942F50E302C05D9378
:104F200091509111FCCFC40ED11C40E0ACCF01E0F8
:104F3000BACF80E3DBCF6217730731F4963388F47E
:104F4000953311F4552369F0F6018083FD01842F18
:104F500090E2811108C0A40FB11D1C9290E080E086
:104F600002CF81E3F1CF91938150F3CF911183CFA1
:104F70008ACF283008F027E03327DA01990F311D56
:104F800087FD916000966105710539F432602E5FEE
:104F90003D9330E32A95E1F708959F3F30F0803844
:104FA0007105610509F03C5F3C5F3D93913008F06D
:104FB0008068911DDF93CF931F930F93FF92EF9221
:104FC000192F987F9695E92F96959695E90FFF27CB
:104FD000EE53FF4F99273327EE24FF24A701E70163
:104FE00005900894079428F4360FE71EF81E491F11
:104FF000511D660F771F881F991F0694A1F7059012
:10500000079428F4E70EF81E491F561FC11D770F9D
:10501000881F991F661F0694A1F70590079428F42E
:10502000F80E491F561FC71FD11D880F991F661FF5
:10503000771F0694A1F70590079420F4490F561F97
:10504000C71FD81F990F661F771F881F0694A9F7DF
:1050500084911095177041F0D695C795579547954F
:10506000F794E7941A95C1F7E8E6F0E06894159094
:10507000159135916591959105907FE27395E118B1
:10508000F10A430B560BC90BD009C0F7E10CF11E16
:10509000431F561FC91FD01D7EF4703311F48A952B
:1050A000E6CFE894015030F0080F0AF40027021709
:1050B00008F4202F2395022F7A3328F079E37D938B
:1050C0002A95E9F710C07D932A9589F6069497955D
:1050D0006795379517951794E118F10A430B560B0E
:1050E000C90BD00998F023957E9173957A3308F017
:1050F00070E37C932013B8F77E9170617D9330F05C
:10510000839571E37D9370E32A95E1F71124EF9085
:10511000FF900F911F91CF91DF91992787FD909577
:1051200008950E94D32808F481E00895E89409C006
:1051300097FB3EF490958095709561957F4F8F4FCA
:105140009F4F9923A9F0F92F96E9BB279395F695E0
:10515000879577956795B795F111F8CFFAF4BB0F5E
:1051600011F460FF1BC06F5F7F4F8F4F9F4F16C0C2
:10517000882311F096E911C0772321F09EE8872F4C
:10518000762F05C0662371F096E8862F70E060E008
:105190002AF09A95660F771F881FDAF7880F969581
:1051A000879597F90895990F0008550FAA0BE0E825
:1051B000FEEF16161706E807F907C0F012161306D9
:1051C000E407F50798F0621B730B840B950B39F419
:1051D0000A2661F0232B242B252B21F408950A267F
:1051E00009F4A140A6958FEF811D811D08950E94AD
:1051F0000A290C947B290E946D2938F00E94742999
:1052000020F0952311F00C9464290C946A29112440
:105210000C94AF290E948C2970F3959FC1F3950FD0
:1052200050E0551F629FF001729FBB27F00DB11D2A
:10523000639FAA27F00DB11DAA1F649F6627B00DBA
:10524000A11D661F829F2227B00DA11D621F739FA3
:10525000B00DA11D621F839FA00D611D221F749FB1
:105260003327A00D611D231F849F600D211D822FF8
:10527000762F6A2F11249F5750409AF0F1F088231F
:105280004AF0EE0FFF1FBB1F661F771F881F91504C
:105290005040A9F79E3F510580F00C9464290C946E
:1052A000AF295F3FE4F3983ED4F3869577956795F1
:1052B000B795F795E7959F5FC1F7FE2B880F911D76
:1052C0009695879597F9089597F99F6780E870E01C
:1052D00060E008959FEF80EC089500240A9416166C
:1052E000170618060906089500240A9412161306D4
:1052F000140605060895092E0394000C11F4882362
:1053000052F0BB0F40F4BF2B11F460FF04C06F5F7D
:105310007F4F8F4F9F4F089557FD9058440F551F53
:1053200059F05F3F71F04795880F97FB991F61F027
:105330009F3F79F087950895121613061406551F9E
:10534000F2CF4695F1DF08C0161617061806991F0A
:10535000F1CF86957105610508940895E894BB27FF
:1053600066277727CB0197F908950E94192AA59FF0
:10537000900DB49F900DA49F800D911D1124089550
:105380002F923F924F925F926F927F928F929F9255
:10539000AF92BF92CF92DF92EF92FF920F931F9343
:1053A000CF93DF93CDB7DEB7CA1BDB0B0FB6F894F4
:1053B000DEBF0FBECDBF09942A88398848885F8434
:1053C0006E847D848C849B84AA84B984C884DF80A5
:1053D000EE80FD800C811B81AA81B981CE0FD11D89
:1053E0000FB6F894DEBF0FBECDBFED010895A1E268
:1053F0001A2EAA1BBB1BFD010DC0AA1FBB1FEE1F4F
:10540000FF1FA217B307E407F50720F0A21BB30B99
:10541000E40BF50B661F771F881F991F1A9469F715
:1054200060957095809590959B01AC01BD01CF0171
:105430000895A29FB001B39FC001A39F700D811D6D
:105440001124911DB29F700D811D1124911D08958D
:1054500097FB072E16F4009407D077FD09D00E9421
:105460003C2A07FC05D03EF4909581959F4F089506
:10547000709561957F4F0895AA1BBB1B51E107C032
:10548000AA1FBB1FA617B70710F0A61BB70B881FD4
:10549000991F5A95A9F780959095BC01CD01089563
:1054A000EE0FFF1F0590F491E02D09945058BB2793
:1054B000AA270E946E2A0C947B290E946D2938F03D
:1054C0000E94742920F039F49F3F19F426F40C94BB
:1054D0006A290EF4E095E7FB0C946429E92F0E94F9
:1054E0008C2958F3BA17620773078407950720F0D1
:1054F00079F4A6F50C94AE290EF4E0950B2EBA2F94
:10550000A02D0B01B90190010C01CA01A0011124C9
:10551000FF27591B99F0593F50F4503E68F11A1675
:10552000F040A22F232F342F4427585FF3CF469506
:1055300037952795A795F0405395C9F77EF41F1628
:10554000BA0B620B730B840BBAF09150A1F0FF0FF2
:10555000BB1F661F771F881FC2F70EC0BA0F621FDE
:10556000731F841F48F4879577956795B795F795CE
:105570009E3F08F0B0CF9395880F08F09927EE0F63
:105580009795879508950E94D72A0C947B290E94AD
:10559000742958F00E946D2940F029F45F3F29F0EA
:1055A0000C94642951110C94AF290C946A290E941F
:1055B0008C2968F39923B1F3552391F3951B550B6F
:1055C000BB27AA2762177307840738F09F5F5F4FD6
:1055D000220F331F441FAA1FA9F335D00E2E3AF015
:1055E000E0E832D091505040E695001CCAF72BD02D
:1055F000FE2F29D0660F771F881FBB1F261737077E
:105600004807AB07B0E809F0BB0B802DBF01FF27AF
:1056100093585F4F3AF09E3F510578F00C946429FF
:105620000C94AF295F3FE4F3983ED4F386957795C9
:105630006795B795F7959F5FC9F7880F911D969568
:10564000879597F90895E1E0660F771F881FBB1FC4
:10565000621773078407BA0720F0621B730B840B71
:10566000BA0BEE1F88F7E09508950E943C2B6894D2
:10567000B1110C94AF2908950E94942988F09F5786
:1056800098F0B92F9927B751B0F0E1F0660F771F66
:10569000881F991F1AF0BA95C9F714C0B13091F05C
:1056A0000E94AE29B1E008950C94AE29672F782F9F
:1056B0008827B85F39F0B93FCCF386957795679521
:1056C000B395D9F73EF490958095709561957F4F8D
:1056D0008F4F9F4F08950E94D32808F48FEF0895AD
:1056E0000E94D328880B990B08950F931F93CF9393
:1056F000DF938230910510F482E090E0E09176052E
:10570000F091770530E020E0B0E0A0E0309799F428
:105710002115310509F44AC0281B390B2430310505
:10572000D8F58A819B816115710589F1FB0193830D
:105730008283FE0111C0408151810281138148178B
:105740005907E0F04817590799F4109761F012963D
:105750000C93129713961C933296CF01DF91CF9141
:105760001F910F9108950093760510937705F4CF5C
:105770002115310551F04217530738F0A901DB011B
:105780009A01BD01DF01F801C1CFEF01F9CF90937C
:10579000770580937605CDCFFE01E20FF31F81934D
:1057A00091932250310939832883D7CF20917405F2
:1057B00030917505232B41F4209122013091230172
:1057C00030937505209374052091200130912101BB
:1057D0002115310541F42DB73EB740912401509178
:1057E0002501241B350BE0917405F0917505E21736
:1057F000F307A0F42E1B3F0B2817390778F0AC01F4
:105800004E5F5F4F2417350748F04E0F5F1F5093D0
:10581000750540937405819391939FCFF0E0E0E08C
:105820009CCFCF93DF930097E9F0FC01329713826E
:105830001282A0917605B0917705ED0130E020E06D
:105840001097A1F420813181820F931F209174055C
:10585000309175052817390709F061C0F093750577
:10586000E0937405DF91CF910895EA01CE17DF0729
:10587000E8F54A815B819E0141155105B1F7E901C7
:10588000FB83EA8349915991C40FD51FEC17FD079B
:1058900061F4808191810296840F951FE9019983BB
:1058A0008883828193819B838A83F0E0E0E0129673
:1058B0008D919C9113970097B9F52D913C9111977B
:1058C000CD010296820F931F2091740530917505CA
:1058D0002817390739F6309751F51092770510924D
:1058E0007605B0937505A0937405BCCFD383C283AE
:1058F00040815181840F951FC817D90761F44E5F0D
:105900005F4F88819981480F591F518340838A8155
:105910009B81938382832115310509F0B0CFF093E9
:105920007705E09376059ECFFD01DC01C0CF1382A1
:105930001282D7CFB0E0A0E0E0EAFCE20C94C229EA
:105940008C01009751F4CB010E94752B8C01C8018A
:10595000CDB7DEB7E0E10C94DE29FC01E60FF71FBE
:105960009C0122503109E217F30708F49DC0D901C8
:10597000CD91DC911197C617D70798F0C530D105A6
:1059800030F3CE0104978617970708F3C61BD70B91
:105990002297C193D1936D937C93CF010E94112CD8
:1059A000D6CF5B01AC1ABD0A4C018C0E9D1EA09196
:1059B0007605B0917705512C412CF12CE12C1097F4
:1059C00031F580917405909175058815990509F058
:1059D0005CC04616570608F058C08091200190918F
:1059E0002101009741F48DB79EB740912401509159
:1059F0002501841B950BE817F90708F055C0F093B3
:105A00007505E0937405F90171836083A0CF8D91D2
:105A10009C91119712966C90129713967C90139705
:105A2000A815B90559F56C0142E0C40ED11CCA1481
:105A3000DB0420F1AC014A195B09DA0112961597D3
:105A400080F06282738251834083D9016D937C938D
:105A5000E114F10471F0D7011396FC93EE931297C1
:105A600076CF22968C0F9D1FF90191838083F301DD
:105A7000EFCFF0937705E093760569CF4816590686
:105A800008F42C017D01D3019ACFCB010E94752B24
:105A90007C01009749F0AE01B8010E94572DC80162
:105AA0000E94112C870153CF10E000E050CFFB0182
:105AB000DC0102C001900D9241505040D8F708958A
:105AC0006817790768F4FB01DC01E40FF51FA40FE8
:105AD000B51F02C002900E9241505040D8F7089571
